{
  "_format": "hh-sol-artifact-1",
  "contractName": "PharmaChain",
  "sourceName": "contracts/PharmaChain.sol",
  "abi": [
    {
      "anonymous": false,
      "inputs": [
        {
          "indexed": false,
          "internalType": "string",
          "name": "batchId",
          "type": "string"
        },
        {
          "indexed": true,
          "internalType": "address",
          "name": "manufacturer",
          "type": "address"
        },
        {
          "indexed": false,
          "internalType": "uint256",
          "name": "demandScore",
          "type": "uint256"
        },
        {
          "indexed": false,
          "internalType": "string",
          "name": "routeHash",
          "type": "string"
        }
      ],
      "name": "BatchMinted",
      "type": "event"
    },
    {
      "anonymous": false,
      "inputs": [
        {
          "indexed": false,
          "internalType": "string",
          "name": "batchId",
          "type": "string"
        },
        {
          "indexed": true,
          "internalType": "address",
          "name": "shop",
          "type": "address"
        }
      ],
      "name": "DeliveryConfirmed",
      "type": "event"
    },
    {
      "anonymous": false,
      "inputs": [
        {
          "indexed": true,
          "internalType": "address",
          "name": "account",
          "type": "address"
        },
        {
          "indexed": false,
          "internalType": "string",
          "name": "role",
          "type": "string"
        }
      ],
      "name": "RoleRegistered",
      "type": "event"
    },
    {
      "anonymous": false,
      "inputs": [
        {
          "indexed": false,
          "internalType": "string",
          "name": "batchId",
          "type": "string"
        },
        {
          "indexed": true,
          "internalType": "address",
          "name": "distributor",
          "type": "address"
        }
      ],
      "name": "TransitUpdated",
      "type": "event"
    },
    {
      "inputs": [
        {
          "internalType": "string",
          "name": "_batchId",
          "type": "string"
        }
      ],
      "name": "confirmDelivery",
      "outputs": [],
      "stateMutability": "nonpayable",
      "type": "function"
    },
    {
      "inputs": [
        {
          "internalType": "address",
          "name": "",
          "type": "address"
        }
      ],
      "name": "isDistributor",
      "outputs": [
        {
          "internalType": "bool",
          "name": "",
          "type": "bool"
        }
      ],
      "stateMutability": "view",
      "type": "function"
    },
    {
      "inputs": [
        {
          "internalType": "address",
          "name": "",
          "type": "address"
        }
      ],
      "name": "isLocalShop",
      "outputs": [
        {
          "internalType": "bool",
          "name": "",
          "type": "bool"
        }
      ],
      "stateMutability": "view",
      "type": "function"
    },
    {
      "inputs": [
        {
          "internalType": "address",
          "name": "",
          "type": "address"
        }
      ],
      "name": "isManufacturer",
      "outputs": [
        {
          "internalType": "bool",
          "name": "",
          "type": "bool"
        }
      ],
      "stateMutability": "view",
      "type": "function"
    },
    {
      "inputs": [
        {
          "internalType": "string",
          "name": "",
          "type": "string"
        }
      ],
      "name": "medications",
      "outputs": [
        {
          "internalType": "string",
          "name": "batchId",
          "type": "string"
        },
        {
          "internalType": "address",
          "name": "manufacturer",
          "type": "address"
        },
        {
          "internalType": "address",
          "name": "currentHolder",
          "type": "address"
        },
        {
          "internalType": "enum PharmaChain.Status",
          "name": "status",
          "type": "uint8"
        },
        {
          "internalType": "uint256",
          "name": "predictedDemandScore",
          "type": "uint256"
        },
        {
          "internalType": "string",
          "name": "suggestedRouteHash",
          "type": "string"
        }
      ],
      "stateMutability": "view",
      "type": "function"
    },
    {
      "inputs": [
        {
          "internalType": "string",
          "name": "_batchId",
          "type": "string"
        },
        {
          "internalType": "uint256",
          "name": "_predictedDemandScore",
          "type": "uint256"
        },
        {
          "internalType": "string",
          "name": "_suggestedRouteHash",
          "type": "string"
        }
      ],
      "name": "mintBatch",
      "outputs": [],
      "stateMutability": "nonpayable",
      "type": "function"
    },
    {
      "inputs": [
        {
          "internalType": "string",
          "name": "_role",
          "type": "string"
        }
      ],
      "name": "registerRole",
      "outputs": [],
      "stateMutability": "nonpayable",
      "type": "function"
    },
    {
      "inputs": [
        {
          "internalType": "string",
          "name": "_batchId",
          "type": "string"
        }
      ],
      "name": "updateTransit",
      "outputs": [],
      "stateMutability": "nonpayable",
      "type": "function"
    }
  ],
  "bytecode": "0x608060405234801561001057600080fd5b50611bd4806100206000396000f3fe608060405234801561001057600080fd5b50600436106100885760003560e01c8063746797d61161005b578063746797d61461012a5780637b966e441461015a5780638f0c86fa14610176578063a4506460146101a657610088565b806317d4a4911461008d5780632534426b146100bd5780632e7dd497146100f2578063570875971461010e575b600080fd5b6100a760048036038101906100a29190610f47565b6101c2565b6040516100b49190610f8f565b60405180910390f35b6100d760048036038101906100d291906110f0565b6101e2565b6040516100e996959493929190611257565b60405180910390f35b61010c600480360381019061010791906110f0565b610391565b005b610128600480360381019061012391906110f0565b61065d565b005b610144600480360381019061013f9190610f47565b6108b5565b6040516101519190610f8f565b60405180910390f35b610174600480360381019061016f91906112f2565b6108d5565b005b610190600480360381019061018b9190610f47565b610be9565b60405161019d9190610f8f565b60405180910390f35b6101c060048036038101906101bb91906110f0565b610c09565b005b60016020528060005260406000206000915054906101000a900460ff1681565b60008180516020810182018051848252602083016020850120818352809550505050505060009150905080600001805461021b906113ac565b80601f0160208091040260200160405190810160405280929190818152602001828054610247906113ac565b80156102945780601f1061026957610100808354040283529160200191610294565b820191906000526020600020905b81548152906001019060200180831161027757829003601f168201915b5050505050908060010160009054906101000a900473ffffffffffffffffffffffffffffffffffffffff16908060020160009054906101000a900473ffffffffffffffffffffffffffffffffffffffff16908060020160149054906101000a900460ff169080600301549080600401805461030e906113ac565b80601f016020809104026020016040519081016040528092919081815260200182805461033a906113ac565b80156103875780601f1061035c57610100808354040283529160200191610387565b820191906000526020600020905b81548152906001019060200180831161036a57829003601f168201915b5050505050905086565b600260003373ffffffffffffffffffffffffffffffffffffffff1673ffffffffffffffffffffffffffffffffffffffff16815260200190815260200160002060009054906101000a900460ff1661041d576040517f08c379a00000000000000000000000000000000000000000000000000000000081526004016104149061144f565b60405180910390fd5b600073ffffffffffffffffffffffffffffffffffffffff1660008260405161044591906114ab565b908152602001604051809103902060010160009054906101000a900473ffffffffffffffffffffffffffffffffffffffff1673ffffffffffffffffffffffffffffffffffffffff16036104cd576040517f08c379a00000000000000000000000000000000000000000000000000000000081526004016104c49061150e565b60405180910390fd5b600060028111156104e1576104e06111c7565b5b6000826040516104f191906114ab565b908152602001604051809103902060020160149054906101000a900460ff166002811115610522576105216111c7565b5b14610562576040517f08c379a0000000000000000000000000000000000000000000000000000000008152600401610559906115a0565b60405180910390fd5b3360008260405161057391906114ab565b908152602001604051809103902060020160006101000a81548173ffffffffffffffffffffffffffffffffffffffff021916908373ffffffffffffffffffffffffffffffffffffffff16021790555060016000826040516105d491906114ab565b908152602001604051809103902060020160146101000a81548160ff02191690836002811115610607576106066111c7565b5b02179055503373ffffffffffffffffffffffffffffffffffffffff167fe896b56e400fa56d585d90fc71276cabd169b0d0bc129bf384d81d52146f67b48260405161065291906115c0565b60405180910390a250565b60405160200161066c9061162e565b604051602081830303815290604052805190602001208160405160200161069391906114ab565b604051602081830303815290604052805190602001200361070a5760018060003373ffffffffffffffffffffffffffffffffffffffff1673ffffffffffffffffffffffffffffffffffffffff16815260200190815260200160002060006101000a81548160ff021916908315150217905550610864565b6040516020016107199061168f565b604051602081830303815290604052805190602001208160405160200161074091906114ab565b60405160208183030381529060405280519060200120036107b8576001600260003373ffffffffffffffffffffffffffffffffffffffff1673ffffffffffffffffffffffffffffffffffffffff16815260200190815260200160002060006101000a81548160ff021916908315150217905550610863565b6040516020016107c7906116f0565b60405160208183030381529060405280519060200120816040516020016107ee91906114ab565b6040516020818303038152906040528051906020012003610862576001600360003373ffffffffffffffffffffffffffffffffffffffff1673ffffffffffffffffffffffffffffffffffffffff16815260200190815260200160002060006101000a81548160ff0219169083151502179055505b5b5b3373ffffffffffffffffffffffffffffffffffffffff167f0a013fecff8f463d11f498d38a9b7c09655b18c2f698131063b2ec5ad8a475d9826040516108aa91906115c0565b60405180910390a250565b60036020528060005260406000206000915054906101000a900460ff1681565b600160003373ffffffffffffffffffffffffffffffffffffffff1673ffffffffffffffffffffffffffffffffffffffff16815260200190815260200160002060009054906101000a900460ff16610961576040517f08c379a000000000000000000000000000000000000000000000000000000000815260040161095890611751565b60405180910390fd5b600073ffffffffffffffffffffffffffffffffffffffff1660008460405161098991906114ab565b908152602001604051809103902060010160009054906101000a900473ffffffffffffffffffffffffffffffffffffffff1673ffffffffffffffffffffffffffffffffffffffff1614610a11576040517f08c379a0000000000000000000000000000000000000000000000000000000008152600401610a08906117bd565b60405180910390fd5b6040518060c001604052808481526020013373ffffffffffffffffffffffffffffffffffffffff1681526020013373ffffffffffffffffffffffffffffffffffffffff16815260200160006002811115610a6e57610a6d6111c7565b5b815260200183815260200182815250600084604051610a8d91906114ab565b90815260200160405180910390206000820151816000019081610ab09190611989565b5060208201518160010160006101000a81548173ffffffffffffffffffffffffffffffffffffffff021916908373ffffffffffffffffffffffffffffffffffffffff16021790555060408201518160020160006101000a81548173ffffffffffffffffffffffffffffffffffffffff021916908373ffffffffffffffffffffffffffffffffffffffff16021790555060608201518160020160146101000a81548160ff02191690836002811115610b6a57610b696111c7565b5b02179055506080820151816003015560a0820151816004019081610b8e9190611989565b509050503373ffffffffffffffffffffffffffffffffffffffff167f7b188aff1dc3c10daa4d6f5f22ca0264a4c9576b44aa90e5a8a34c363be2349b848484604051610bdc93929190611a5b565b60405180910390a2505050565b60026020528060005260406000206000915054906101000a900460ff1681565b600360003373ffffffffffffffffffffffffffffffffffffffff1673ffffffffffffffffffffffffffffffffffffffff16815260200190815260200160002060009054906101000a900460ff16610c95576040517f08c379a0000000000000000000000000000000000000000000000000000000008152600401610c8c90611b12565b60405180910390fd5b600073ffffffffffffffffffffffffffffffffffffffff16600082604051610cbd91906114ab565b908152602001604051809103902060010160009054906101000a900473ffffffffffffffffffffffffffffffffffffffff1673ffffffffffffffffffffffffffffffffffffffff1603610d45576040517f08c379a0000000000000000000000000000000000000000000000000000000008152600401610d3c9061150e565b60405180910390fd5b60016002811115610d5957610d586111c7565b5b600082604051610d6991906114ab565b908152602001604051809103902060020160149054906101000a900460ff166002811115610d9a57610d996111c7565b5b14610dda576040517f08c379a0000000000000000000000000000000000000000000000000000000008152600401610dd190611b7e565b60405180910390fd5b33600082604051610deb91906114ab565b908152602001604051809103902060020160006101000a81548173ffffffffffffffffffffffffffffffffffffffff021916908373ffffffffffffffffffffffffffffffffffffffff1602179055506002600082604051610e4c91906114ab565b908152602001604051809103902060020160146101000a81548160ff02191690836002811115610e7f57610e7e6111c7565b5b02179055503373ffffffffffffffffffffffffffffffffffffffff167f8e7f2465d57c0d2ee4e9f885968a20b36712b73d9d659a145dd42122beae92c782604051610eca91906115c0565b60405180910390a250565b6000604051905090565b600080fd5b600080fd5b600073ffffffffffffffffffffffffffffffffffffffff82169050919050565b6000610f1482610ee9565b9050919050565b610f2481610f09565b8114610f2f57600080fd5b50565b600081359050610f4181610f1b565b92915050565b600060208284031215610f5d57610f5c610edf565b5b6000610f6b84828501610f32565b91505092915050565b60008115159050919050565b610f8981610f74565b82525050565b6000602082019050610fa46000830184610f80565b92915050565b600080fd5b600080fd5b6000601f19601f8301169050919050565b7f4e487b7100000000000000000000000000000000000000000000000000000000600052604160045260246000fd5b610ffd82610fb4565b810181811067ffffffffffffffff8211171561101c5761101b610fc5565b5b80604052505050565b600061102f610ed5565b905061103b8282610ff4565b919050565b600067ffffffffffffffff82111561105b5761105a610fc5565b5b61106482610fb4565b9050602081019050919050565b82818337600083830152505050565b600061109361108e84611040565b611025565b9050828152602081018484840111156110af576110ae610faf565b5b6110ba848285611071565b509392505050565b600082601f8301126110d7576110d6610faa565b5b81356110e7848260208601611080565b91505092915050565b60006020828403121561110657611105610edf565b5b600082013567ffffffffffffffff81111561112457611123610ee4565b5b611130848285016110c2565b91505092915050565b600081519050919050565b600082825260208201905092915050565b60005b83811015611173578082015181840152602081019050611158565b60008484015250505050565b600061118a82611139565b6111948185611144565b93506111a4818560208601611155565b6111ad81610fb4565b840191505092915050565b6111c181610f09565b82525050565b7f4e487b7100000000000000000000000000000000000000000000000000000000600052602160045260246000fd5b60038110611207576112066111c7565b5b50565b6000819050611218826111f6565b919050565b60006112288261120a565b9050919050565b6112388161121d565b82525050565b6000819050919050565b6112518161123e565b82525050565b600060c0820190508181036000830152611271818961117f565b905061128060208301886111b8565b61128d60408301876111b8565b61129a606083018661122f565b6112a76080830185611248565b81810360a08301526112b9818461117f565b9050979650505050505050565b6112cf8161123e565b81146112da57600080fd5b50565b6000813590506112ec816112c6565b92915050565b60008060006060848603121561130b5761130a610edf565b5b600084013567ffffffffffffffff81111561132957611328610ee4565b5b611335868287016110c2565b9350506020611346868287016112dd565b925050604084013567ffffffffffffffff81111561136757611366610ee4565b5b611373868287016110c2565b9150509250925092565b7f4e487b7100000000000000000000000000000000000000000000000000000000600052602260045260246000fd5b600060028204905060018216806113c457607f821691505b6020821081036113d7576113d661137d565b5b50919050565b7f4f6e6c79204469737472696275746f722063616e20757064617465207472616e60008201527f7369740000000000000000000000000000000000000000000000000000000000602082015250565b6000611439602383611144565b9150611444826113dd565b604082019050919050565b600060208201905081810360008301526114688161142c565b9050919050565b600081905092915050565b600061148582611139565b61148f818561146f565b935061149f818560208601611155565b80840191505092915050565b60006114b7828461147a565b915081905092915050565b7f426174636820646f6573206e6f74206578697374000000000000000000000000600082015250565b60006114f8601483611144565b9150611503826114c2565b602082019050919050565b60006020820190508181036000830152611527816114eb565b9050919050565b7f4261746368206973206e6f7420696e204d616e7566616374757265642073746160008201527f7465000000000000000000000000000000000000000000000000000000000000602082015250565b600061158a602283611144565b91506115958261152e565b604082019050919050565b600060208201905081810360008301526115b98161157d565b9050919050565b600060208201905081810360008301526115da818461117f565b905092915050565b7f4d616e7566616374757265720000000000000000000000000000000000000000600082015250565b6000611618600c8361146f565b9150611623826115e2565b600c82019050919050565b60006116398261160b565b9150819050919050565b7f4469737472696275746f72000000000000000000000000000000000000000000600082015250565b6000611679600b8361146f565b915061168482611643565b600b82019050919050565b600061169a8261166c565b9150819050919050565b7f4c6f63616c53686f700000000000000000000000000000000000000000000000600082015250565b60006116da60098361146f565b91506116e5826116a4565b600982019050919050565b60006116fb826116cd565b9150819050919050565b7f4f6e6c79204d616e7566616374757265722063616e206d696e74000000000000600082015250565b600061173b601a83611144565b915061174682611705565b602082019050919050565b6000602082019050818103600083015261176a8161172e565b9050919050565b7f426174636820616c726561647920657869737473000000000000000000000000600082015250565b60006117a7601483611144565b91506117b282611771565b602082019050919050565b600060208201905081810360008301526117d68161179a565b9050919050565b60008190508160005260206000209050919050565b60006020601f8301049050919050565b600082821b905092915050565b60006008830261183f7fffffffffffffffffffffffffffffffffffffffffffffffffffffffffffffffff82611802565b6118498683611802565b95508019841693508086168417925050509392505050565b6000819050919050565b600061188661188161187c8461123e565b611861565b61123e565b9050919050565b6000819050919050565b6118a08361186b565b6118b46118ac8261188d565b84845461180f565b825550505050565b600090565b6118c96118bc565b6118d4818484611897565b505050565b5b818110156118f8576118ed6000826118c1565b6001810190506118da565b5050565b601f82111561193d5761190e816117dd565b611917846117f2565b81016020851015611926578190505b61193a611932856117f2565b8301826118d9565b50505b505050565b600082821c905092915050565b600061196060001984600802611942565b1980831691505092915050565b6000611979838361194f565b9150826002028217905092915050565b61199282611139565b67ffffffffffffffff8111156119ab576119aa610fc5565b5b6119b582546113ac565b6119c08282856118fc565b600060209050601f8311600181146119f357600084156119e1578287015190505b6119eb858261196d565b865550611a53565b601f198416611a01866117dd565b60005b82811015611a2957848901518255600182019150602085019450602081019050611a04565b86831015611a465784890151611a42601f89168261194f565b8355505b6001600288020188555050505b505050505050565b60006060820190508181036000830152611a75818661117f565b9050611a846020830185611248565b8181036040830152611a96818461117f565b9050949350505050565b7f4f6e6c79204c6f63616c2053686f702063616e20636f6e6669726d2064656c6960008201527f7665727900000000000000000000000000000000000000000000000000000000602082015250565b6000611afc602483611144565b9150611b0782611aa0565b604082019050919050565b60006020820190508181036000830152611b2b81611aef565b9050919050565b7f4261746368206973206e6f7420696e20496e5472616e73697420737461746500600082015250565b6000611b68601f83611144565b9150611b7382611b32565b602082019050919050565b60006020820190508181036000830152611b9781611b5b565b905091905056fea264697066735822122083ea26b6eab15222e3078f8e9df5d7522d28c35a04608d48300828b18140304d64736f6c63430008180033",
  "linkReferences": {},
  "deployedLinkReferences": {}
}